{"abi":[{"type":"constructor","inputs":[],"stateMutability":"nonpayable"},{"type":"function","name":"createGame","inputs":[{"name":"gameId","type":"bytes32","internalType":"bytes32"}],"outputs":[],"stateMutability":"nonpayable"},{"type":"function","name":"finalizeGame","inputs":[{"name":"gameId","type":"bytes32","internalType":"bytes32"},{"name":"winner","type":"uint8","internalType":"uint8"},{"name":"p1President","type":"uint8","internalType":"uint8"},{"name":"p2President","type":"uint8","internalType":"uint8"},{"name":"board1","type":"bytes","internalType":"bytes"},{"name":"board2","type":"bytes","internalType":"bytes"}],"outputs":[],"stateMutability":"nonpayable"},{"type":"function","name":"games","inputs":[{"name":"","type":"bytes32","internalType":"bytes32"}],"outputs":[{"name":"phase","type":"uint8","internalType":"enum BattleShip.Phase"},{"name":"winner","type":"uint8","internalType":"uint8"},{"name":"p1President","type":"uint8","internalType":"uint8"},{"name":"p2President","type":"uint8","internalType":"uint8"},{"name":"board1","type":"bytes","internalType":"bytes"},{"name":"board2","type":"bytes","internalType":"bytes"},{"name":"createdAt","type":"uint256","internalType":"uint256"},{"name":"finalizedAt","type":"uint256","internalType":"uint256"}],"stateMutability":"view"},{"type":"function","name":"getBoards","inputs":[{"name":"gameId","type":"bytes32","internalType":"bytes32"}],"outputs":[{"name":"board1","type":"bytes","internalType":"bytes"},{"name":"board2","type":"bytes","internalType":"bytes"}],"stateMutability":"view"},{"type":"function","name":"getGame","inputs":[{"name":"gameId","type":"bytes32","internalType":"bytes32"}],"outputs":[{"name":"phase","type":"uint8","internalType":"enum BattleShip.Phase"},{"name":"winner","type":"uint8","internalType":"uint8"},{"name":"p1President","type":"uint8","internalType":"uint8"},{"name":"p2President","type":"uint8","internalType":"uint8"},{"name":"createdAt","type":"uint256","internalType":"uint256"},{"name":"finalizedAt","type":"uint256","internalType":"uint256"}],"stateMutability":"view"},{"type":"function","name":"joinGame","inputs":[{"name":"gameId","type":"bytes32","internalType":"bytes32"}],"outputs":[],"stateMutability":"nonpayable"},{"type":"function","name":"operator","inputs":[],"outputs":[{"name":"","type":"address","internalType":"address"}],"stateMutability":"view"},{"type":"event","name":"GameCreated","inputs":[{"name":"gameId","type":"bytes32","indexed":true,"internalType":"bytes32"},{"name":"timestamp","type":"uint256","indexed":false,"internalType":"uint256"}],"anonymous":false},{"type":"event","name":"GameFinalized","inputs":[{"name":"gameId","type":"bytes32","indexed":true,"internalType":"bytes32"},{"name":"winner","type":"uint8","indexed":false,"internalType":"uint8"},{"name":"p1President","type":"uint8","indexed":false,"internalType":"uint8"},{"name":"p2President","type":"uint8","indexed":false,"internalType":"uint8"},{"name":"board1","type":"bytes","indexed":false,"internalType":"bytes"},{"name":"board2","type":"bytes","indexed":false,"internalType":"bytes"},{"name":"timestamp","type":"uint256","indexed":false,"internalType":"uint256"}],"anonymous":false},{"type":"event","name":"GameJoined","inputs":[{"name":"gameId","type":"bytes32","indexed":true,"internalType":"bytes32"}],"anonymous":false}],"bytecode":{"object":"0x608060405234801561000f575f80fd5b50335f806101000a81548173ffffffffffffffffffffffffffffffffffffffff021916908373ffffffffffffffffffffffffffffffffffffffff1602179055506116ea8061005c5f395ff3fe608060405234801561000f575f80fd5b506004361061007b575f3560e01c8063570ca73511610059578063570ca735146100e857806373931bbf14610106578063bf4747661461013b578063f579f882146101575761007b565b8063138269031461007f578063457391e5146100b057806352f1623e146100cc575b5f80fd5b61009960048036038101906100949190610b7c565b61018e565b6040516100a7929190610c31565b60405180910390f35b6100ca60048036038101906100c59190610b7c565b6102d6565b005b6100e660048036038101906100e19190610cfd565b610447565b005b6100f061074f565b6040516100fd9190610e06565b60405180910390f35b610120600480360381019061011b9190610b7c565b610772565b60405161013296959493929190610eb9565b60405180910390f35b61015560048036038101906101509190610b7c565b6107ef565b005b610171600480360381019061016c9190610b7c565b6109c1565b604051610185989796959493929190610f18565b60405180910390f35b60608060015f8481526020019081526020015f2060010160015f8581526020019081526020015f206002018180546101c590610fcf565b80601f01602080910402602001604051908101604052809291908181526020018280546101f190610fcf565b801561023c5780601f106102135761010080835404028352916020019161023c565b820191905f5260205f20905b81548152906001019060200180831161021f57829003601f168201915b5050505050915080805461024f90610fcf565b80601f016020809104026020016040519081016040528092919081815260200182805461027b90610fcf565b80156102c65780601f1061029d576101008083540402835291602001916102c6565b820191905f5260205f20905b8154815290600101906020018083116102a957829003601f168201915b5050505050905091509150915091565b5f8054906101000a900473ffffffffffffffffffffffffffffffffffffffff1673ffffffffffffffffffffffffffffffffffffffff163373ffffffffffffffffffffffffffffffffffffffff1614610363576040517f08c379a000000000000000000000000000000000000000000000000000000000815260040161035a90611059565b60405180910390fd5b5f60015f8381526020019081526020015f2060030154146103b9576040517f08c379a00000000000000000000000000000000000000000000000000000000081526004016103b0906110c1565b60405180910390fd5b5f60015f8381526020019081526020015f205f015f6101000a81548160ff021916908360028111156103ee576103ed610e1f565b5b02179055504260015f8381526020019081526020015f2060030181905550807f679159d61874cc548c1d06adf24fa72f29a2bc9b8524dc7fcce81ea74307c2584260405161043c91906110df565b60405180910390a250565b5f8054906101000a900473ffffffffffffffffffffffffffffffffffffffff1673ffffffffffffffffffffffffffffffffffffffff163373ffffffffffffffffffffffffffffffffffffffff16146104d4576040517f08c379a00000000000000000000000000000000000000000000000000000000081526004016104cb90611059565b60405180910390fd5b600160028111156104e8576104e7610e1f565b5b60015f8a81526020019081526020015f205f015f9054906101000a900460ff16600281111561051a57610519610e1f565b5b1461055a576040517f08c379a000000000000000000000000000000000000000000000000000000000815260040161055190611142565b60405180910390fd5b60018760ff16148061056f575060028760ff16145b6105ae576040517f08c379a00000000000000000000000000000000000000000000000000000000081526004016105a5906111aa565b60405180910390fd5b606484849050146105f4576040517f08c379a00000000000000000000000000000000000000000000000000000000081526004016105eb90611212565b60405180910390fd5b6064828290501461063a576040517f08c379a00000000000000000000000000000000000000000000000000000000081526004016106319061127a565b60405180910390fd5b5f60015f8a81526020019081526020015f2090506002815f015f6101000a81548160ff0219169083600281111561067457610673610e1f565b5b021790555087815f0160016101000a81548160ff021916908360ff16021790555086815f0160026101000a81548160ff021916908360ff16021790555085815f0160036101000a81548160ff021916908360ff16021790555084848260010191826106e092919061146c565b5082828260020191826106f492919061146c565b50428160040181905550887fc5ef5d1c530dc6ee7e3c91f3e29d6157471eb115480a558fd52f360af1a24ca0898989898989894260405161073c989796959493929190611573565b60405180910390a2505050505050505050565b5f8054906101000a900473ffffffffffffffffffffffffffffffffffffffff1681565b5f805f805f805f60015f8981526020019081526020015f209050805f015f9054906101000a900460ff16815f0160019054906101000a900460ff16825f0160029054906101000a900460ff16835f0160039054906101000a900460ff16846003015485600401549650965096509650965096505091939550919395565b5f8054906101000a900473ffffffffffffffffffffffffffffffffffffffff1673ffffffffffffffffffffffffffffffffffffffff163373ffffffffffffffffffffffffffffffffffffffff161461087c576040517f08c379a000000000000000000000000000000000000000000000000000000000815260040161087390611059565b60405180910390fd5b5f60015f8381526020019081526020015f2060030154036108d2576040517f08c379a00000000000000000000000000000000000000000000000000000000081526004016108c99061162e565b60405180910390fd5b5f60028111156108e5576108e4610e1f565b5b60015f8381526020019081526020015f205f015f9054906101000a900460ff16600281111561091757610916610e1f565b5b14610957576040517f08c379a000000000000000000000000000000000000000000000000000000000815260040161094e90611696565b60405180910390fd5b6001805f8381526020019081526020015f205f015f6101000a81548160ff0219169083600281111561098c5761098b610e1f565b5b0217905550807f9e5a9ef273ea60ea90ac34dd0bd1bb373892ab14d6133df827ed7350406855ba60405160405180910390a250565b6001602052805f5260405f205f91509050805f015f9054906101000a900460ff1690805f0160019054906101000a900460ff1690805f0160029054906101000a900460ff1690805f0160039054906101000a900460ff1690806001018054610a2890610fcf565b80601f0160208091040260200160405190810160405280929190818152602001828054610a5490610fcf565b8015610a9f5780601f10610a7657610100808354040283529160200191610a9f565b820191905f5260205f20905b815481529060010190602001808311610a8257829003601f168201915b505050505090806002018054610ab490610fcf565b80601f0160208091040260200160405190810160405280929190818152602001828054610ae090610fcf565b8015610b2b5780601f10610b0257610100808354040283529160200191610b2b565b820191905f5260205f20905b815481529060010190602001808311610b0e57829003601f168201915b5050505050908060030154908060040154905088565b5f80fd5b5f80fd5b5f819050919050565b610b5b81610b49565b8114610b65575f80fd5b50565b5f81359050610b7681610b52565b92915050565b5f60208284031215610b9157610b90610b41565b5b5f610b9e84828501610b68565b91505092915050565b5f81519050919050565b5f82825260208201905092915050565b5f5b83811015610bde578082015181840152602081019050610bc3565b5f8484015250505050565b5f601f19601f8301169050919050565b5f610c0382610ba7565b610c0d8185610bb1565b9350610c1d818560208601610bc1565b610c2681610be9565b840191505092915050565b5f6040820190508181035f830152610c498185610bf9565b90508181036020830152610c5d8184610bf9565b90509392505050565b5f60ff82169050919050565b610c7b81610c66565b8114610c85575f80fd5b50565b5f81359050610c9681610c72565b92915050565b5f80fd5b5f80fd5b5f80fd5b5f8083601f840112610cbd57610cbc610c9c565b5b8235905067ffffffffffffffff811115610cda57610cd9610ca0565b5b602083019150836001820283011115610cf657610cf5610ca4565b5b9250929050565b5f805f805f805f8060c0898b031215610d1957610d18610b41565b5b5f610d268b828c01610b68565b9850506020610d378b828c01610c88565b9750506040610d488b828c01610c88565b9650506060610d598b828c01610c88565b955050608089013567ffffffffffffffff811115610d7a57610d79610b45565b5b610d868b828c01610ca8565b945094505060a089013567ffffffffffffffff811115610da957610da8610b45565b5b610db58b828c01610ca8565b92509250509295985092959890939650565b5f73ffffffffffffffffffffffffffffffffffffffff82169050919050565b5f610df082610dc7565b9050919050565b610e0081610de6565b82525050565b5f602082019050610e195f830184610df7565b92915050565b7f4e487b71000000000000000000000000000000000000000000000000000000005f52602160045260245ffd5b60038110610e5d57610e5c610e1f565b5b50565b5f819050610e6d82610e4c565b919050565b5f610e7c82610e60565b9050919050565b610e8c81610e72565b82525050565b610e9b81610c66565b82525050565b5f819050919050565b610eb381610ea1565b82525050565b5f60c082019050610ecc5f830189610e83565b610ed96020830188610e92565b610ee66040830187610e92565b610ef36060830186610e92565b610f006080830185610eaa565b610f0d60a0830184610eaa565b979650505050505050565b5f61010082019050610f2c5f83018b610e83565b610f39602083018a610e92565b610f466040830189610e92565b610f536060830188610e92565b8181036080830152610f658187610bf9565b905081810360a0830152610f798186610bf9565b9050610f8860c0830185610eaa565b610f9560e0830184610eaa565b9998505050505050505050565b7f4e487b71000000000000000000000000000000000000000000000000000000005f52602260045260245ffd5b5f6002820490506001821680610fe657607f821691505b602082108103610ff957610ff8610fa2565b5b50919050565b5f82825260208201905092915050565b7f426174746c65536869703a206e6f74206f70657261746f7200000000000000005f82015250565b5f611043601883610fff565b915061104e8261100f565b602082019050919050565b5f6020820190508181035f83015261107081611037565b9050919050565b7f426174746c65536869703a2067616d6520616c726561647920657869737473005f82015250565b5f6110ab601f83610fff565b91506110b682611077565b602082019050919050565b5f6020820190508181035f8301526110d88161109f565b9050919050565b5f6020820190506110f25f830184610eaa565b92915050565b7f426174746c65536869703a2067616d65206e6f742061637469766500000000005f82015250565b5f61112c601b83610fff565b9150611137826110f8565b602082019050919050565b5f6020820190508181035f83015261115981611120565b9050919050565b7f426174746c65536869703a20696e76616c69642077696e6e65720000000000005f82015250565b5f611194601a83610fff565b915061119f82611160565b602082019050919050565b5f6020820190508181035f8301526111c181611188565b9050919050565b7f426174746c65536869703a20696e76616c696420626f617264310000000000005f82015250565b5f6111fc601a83610fff565b9150611207826111c8565b602082019050919050565b5f6020820190508181035f830152611229816111f0565b9050919050565b7f426174746c65536869703a20696e76616c696420626f617264320000000000005f82015250565b5f611264601a83610fff565b915061126f82611230565b602082019050919050565b5f6020820190508181035f83015261129181611258565b9050919050565b5f82905092915050565b7f4e487b71000000000000000000000000000000000000000000000000000000005f52604160045260245ffd5b5f819050815f5260205f209050919050565b5f6020601f8301049050919050565b5f82821b905092915050565b5f6008830261132b7fffffffffffffffffffffffffffffffffffffffffffffffffffffffffffffffff826112f0565b61133586836112f0565b95508019841693508086168417925050509392505050565b5f819050919050565b5f61137061136b61136684610ea1565b61134d565b610ea1565b9050919050565b5f819050919050565b61138983611356565b61139d61139582611377565b8484546112fc565b825550505050565b5f90565b6113b16113a5565b6113bc818484611380565b505050565b5b818110156113df576113d45f826113a9565b6001810190506113c2565b5050565b601f821115611424576113f5816112cf565b6113fe846112e1565b8101602085101561140d578190505b611421611419856112e1565b8301826113c1565b50505b505050565b5f82821c905092915050565b5f6114445f1984600802611429565b1980831691505092915050565b5f61145c8383611435565b9150826002028217905092915050565b6114768383611298565b67ffffffffffffffff81111561148f5761148e6112a2565b5b6114998254610fcf565b6114a48282856113e3565b5f601f8311600181146114d1575f84156114bf578287013590505b6114c98582611451565b865550611530565b601f1984166114df866112cf565b5f5b82811015611506578489013582556001820191506020850194506020810190506114e1565b86831015611523578489013561151f601f891682611435565b8355505b6001600288020188555050505b50505050505050565b828183375f83830152505050565b5f6115528385610bb1565b935061155f838584611539565b61156883610be9565b840190509392505050565b5f60c0820190506115865f83018b610e92565b611593602083018a610e92565b6115a06040830189610e92565b81810360608301526115b3818789611547565b905081810360808301526115c8818587611547565b90506115d760a0830184610eaa565b9998505050505050505050565b7f426174746c65536869703a2067616d65206e6f7420666f756e640000000000005f82015250565b5f611618601a83610fff565b9150611623826115e4565b602082019050919050565b5f6020820190508181035f8301526116458161160c565b9050919050565b7f426174746c65536869703a2067616d6520616c726561647920616374697665005f82015250565b5f611680601f83610fff565b915061168b8261164c565b602082019050919050565b5f6020820190508181035f8301526116ad81611674565b905091905056fea26469706673582212201c43afa056c524429fa73dc8a077c8ff752a6a7572c2b6fe4629004cda73c70f64736f6c63430008140033","linkReferences":{}},"methodIdentifiers":{"createGame(bytes32)":"457391e5","finalizeGame(bytes32,uint8,uint8,uint8,bytes,bytes)":"52f1623e","games(bytes32)":"f579f882","getBoards(bytes32)":"13826903","getGame(bytes32)":"73931bbf","joinGame(bytes32)":"bf474766","operator()":"570ca735"},"id":0}